:100000000C9478000C9495000C9495000C94950039
:100010000C9495000C9495000C9495000C9495000C
:100020000C9495000C9495000C9495000C949500FC
:100030000C9495000C9495000C9495000C949500EC
:100040000C9495000C9495000C9414010C9495005C
:100050000C9495000C9495000C9495000C949500CC
:100060000C9495000C9495000C9495000C949500BC
:100070000C9495000C9495000C94950000000000E1
:10008000040307060000000000000000000000015B
:10009000020000000000000000000000010204084F
:1000A0001020408001020408102040800102040852
:1000B0001020408001020408102040800404040441
:1000C0000404040403030303030303030202020200
:1000D00002020202010101010101010100002200EE
:1000E000250028002B0000002100240027002A0002
:1000F00011241FBECFEFD0E1DEBFCDBF11E0A0E0E5
:10010000B1E0EAE5F6E002C005900D92A030B1073B
:10011000D9F721E0A0E0B1E001C01D92A930B207FB
:10012000E1F70E9405010C942B030C940000089544
:100130001F93CF93DF93FC013FEF369FC001379FA2
:10014000900D112464E670E00E94E902EB011C1698
:100150001D062CF0D195C195D10960E001C061E088
:10016000E130F10529F0329729F417E024E002C0CC
:1001700016E025E0822F0E94B802BE01812FDF9198
:10018000CF911F910C94F40161E085E00E947C0204
:1001900061E086E00E947C0261E084E00E947C02D3
:1001A00061E087E00E947C0262E370E081E090E021
:1001B0000E94980062E370E082E090E00E94980064
:1001C00068EE73E080E090E00E947D016EEC7FEFCE
:1001D00081E090E00E9498006EEC7FEF82E090E07A
:1001E0000E94980068EE73E080E090E00E947D013C
:1001F00060E070E081E090E00E94980060E070E0D4
:1002000082E090E00C94980008950E94B9010E9449
:1002100004010E94C400C0E0D0E00E949700209733
:10022000E1F30E940000F9CF1F920F920FB60F92D8
:1002300011242F933F938F939F93AF93BF938091FC
:10024000010190910201A0910301B091040130914C
:10025000000126E6230F2D3728F029EE230F019603
:10026000A11DB11D20930001809301019093020113
:10027000A0930301B09304018091050190910601C0
:10028000A0910701B09108010196A11DB11D8093B5
:10029000050190930601A0930701B0930801BF9157
:1002A000AF919F918F913F912F910F900FBE0F9023
:1002B0001F9018959FB7F894409105015091060141
:1002C000609107017091080186B5A89B06C08F3F19
:1002D00021F04F5F5F4F6F4F7F4F9FBF762F652F8E
:1002E000542F44279A01AB01280F311D411D511D88
:1002F000A3E0B0E00E94FD0208958F929F92AF921A
:10030000BF92CF92DF92EF92FF926B017C010E942D
:100310005A014B015C01C114D104E104F10401F163
:100320000E94E8020E945A01DC01CB018819990958
:10033000AA09BB09883E9340A105B10560F321E0FD
:10034000C21AD108E108F10888EE880E83E0981EF1
:10035000A11CB11CC114D104E104F10419F7DBCFD5
:10036000FF90EF90DF90CF90BF90AF909F908F90D5
:100370000895789484B5826084BD84B5816084BD1D
:1003800085B5826085BD85B5816085BDEEE6F0E00E
:10039000808181608083E1E8F0E01082808182606A
:1003A0008083808181608083E0E8F0E080818160EB
:1003B0008083E1EBF0E0808184608083E0EBF0E01B
:1003C000808181608083EAE7F0E0808184608083BF
:1003D0008081826080838081816080838081806869
:1003E00080831092C10008951F93CF93DF93182F3D
:1003F000EB0161E00E947C02209711F460E004C0F0
:10040000CF3FD10539F461E0812FDF91CF911F916A
:100410000C94B802E12FF0E0E458FF4FE491E33090
:10042000F9F048F4E130B9F0E230A1F584B580622A
:1004300084BDC8BD34C0E630E9F0E73019F1E430DE
:1004400049F580918000806280938000D0938B007A
:10045000C0938A0024C084B5806884BDC7BD1FC016
:1004600080918000806880938000D0938900C09341
:10047000880015C08091B00080688093B000C09360
:10048000B3000DC08091B00080628093B000C09333
:10049000B40005C0C038D1050CF0B5CFAFCFDF91A7
:1004A000CF911F910895833081F028F4813099F025
:1004B0008230A1F008958630A9F08730B9F08430F9
:1004C000D1F4809180008F7D03C0809180008F7770
:1004D00080938000089584B58F7702C084B58F7DA6
:1004E00084BD08958091B0008F7703C08091B000E3
:1004F0008F7D8093B0000895CF93DF9390E0FC014F
:10050000E456FF4F2491FC01E454FF4F849188236B
:1005100061F190E0880F991FFC01EA51FF4FC591EE
:10052000D491FC01E452FF4FA591B491611109C02F
:100530009FB7F8948881209582238883EC912E239D
:100540000BC0623061F49FB7F8943881822F809598
:1005500083238883EC912E2B2C939FBF06C08FB7EB
:10056000F894E8812E2B28838FBFDF91CF910895D7
:100570001F93CF93DF93282F30E0F901E458FF4F0A
:100580008491F901E456FF4FD491F901E454FF4FEF
:10059000C491CC23C9F0162F81110E945302EC2F75
:1005A000F0E0EE0FFF1FE452FF4FA591B4918FB71B
:1005B000F894111105C09C91ED2FE095E92302C03C
:1005C000EC91ED2BEC938FBFDF91CF911F910895AC
:1005D000089597FB072E16F4009407D077FD09D0F5
:1005E0000E94080307FC05D03EF4909581959F4F2B
:1005F0000895709561957F4F08950E941C03A59FF3
:10060000900DB49F900DA49F800D911D112408950D
:10061000AA1BBB1B51E107C0AA1FBB1FA617B70728
:1006200010F0A61BB70B881F991F5A95A9F7809544
:100630009095BC01CD010895A29FB001B39FC00168
:10064000A39F700D811D1124911DB29F700D811DFE
:0A0650001124911D0895F894FFCFC6
:00000001FF
