:100000000C9476030C948B100C94B2100C94D910B1
:100010000C949E030C949E030C949E030C949E03DC
:100020000C949E030C949E030C949E030C949E03CC
:100030000C949E030C946F0D0C949E030C949E03E1
:100040000C949E030C949E030C9400110C949E033C
:100050000C94310F0C94630F0C949E030C949E032C
:100060000C949E030C949E030C949E030C949E038C
:100070000C94C00F0C94F20F0C949E0300407A1065
:10008000F35A00A0724E18090010A5D4E80000E849
:100090007648170000E40B54020000CA9A3B0000A7
:1000A00000E1F505000080969800000040420F0036
:1000B0000000A08601000000102700000000E803F7
:1000C000000000006400000000000A0000000000C2
:1000D0000100000000002C76D888DC674F0823DF81
:1000E000C1DFAE59E1B1B796E5E3E453C63AE65154
:1000F000997696E8E6C28426EB898C9B62ED407C7B
:100100006FFCEFBC9C9F40F2BAA56FA5F490055A16
:100110002AF75C936B6CF9676DC11BFCE0E40D473B
:10012000FEF520E6B500D0ED902E0300943577055E
:100130000080841E080000204E0A000000C80C3316
:100140003333330F986E12831141EF8D2114893BA5
:10015000E65516CFFEE6DB18D1844B381BF77C1D25
:10016000901DA4BBE424203284725E228100C9F178
:1001700024ECA1E53D2700000000003E5B4F5B3E04
:100180003E6B4F6B3E1C3E7C3E1C183C7E3C181C5C
:10019000577D571C1C5E7F5E1C00183C1800FFE753
:1001A000C3E7FF0018241800FFE7DBE7FF30483AF9
:1001B000060E2629792926407F050507407F05255B
:1001C0003F5A3CE73C5A7F3E1C1C08081C1C3E7FE3
:1001D00014227F22145F5F005F5F06097F017F00AA
:1001E0006689956A606060606094A2FFA2940804CA
:1001F0007E040810207E201008082A1C08081C2AEB
:1002000008081E101010100C1E0C1E0C30383E3842
:1002100030060E3E0E06000000000000005F0000E9
:100220000007000700147F147F14242A7F2A12235A
:100230001308646236495620500008070300001C6A
:100240002241000041221C002A1C7F1C2A08083E73
:100250000808008070300008080808080000606086
:100260000020100804023E5149453E00427F4000F4
:1002700042615149462141494D331814127F1027DC
:10028000454545393C4A4949310301710907364919
:10029000494936464949291E0000140000004034EF
:1002A00000000008142241141414141400412214F4
:1002B0000802015909063E415D594E7C1211127C1B
:1002C0007F494949363E414141227F4141413E7F7C
:1002D000494949417F090909013E414151737F085C
:1002E00008087F00417F41002040413F017F081402
:1002F00022417F404040407F021C027F7F04081063
:100300007F3E4141413E7F090909063E4151215E40
:100310007F09192946264949493203017F01033FD4
:100320004040403F1F2040201F3F4038403F631463
:1003300008146303047804036159494D43007F4165
:1003400041410204081020004141417F04020102A2
:1003500004404040404000030708002054547840C7
:100360007F284444383844444428384444287F385B
:100370005454541800087E090218A4A49C787F08DD
:1003800004047800447D40002040403D007F102858
:10039000440000417F40007C047804787C08040419
:1003A000783844444438FC1824241818242418FCB1
:1003B0007C08040408485454542404043F44243C56
:1003C0004040207C1C2040201C3C4030403C4428C5
:1003D0001028444C9090907C4464544C440008365F
:1003E00041000000770000004136080002010204CD
:1003F000023C2623263C1EA1A161123A4040207AED
:100400003854545559215555794121545478412136
:100410005554784020545579400C1E52721239556B
:100420005555593954545459395554545800004568
:100430007C410002457D420001457C40F029242991
:10044000F0F0282528F07C545545002054547C5465
:100450007C0A097F49324949493232484848323298
:100460004A4848303A4141217A3A42402078009D3A
:10047000A0A07D39444444393D4040403D3C24FFE8
:100480002424487E4943662B2FFC2F2BFF0929F695
:1004900020C0887E090320545479410000447D41E6
:1004A0003048484A32384040227A007A0A0A727D3F
:1004B0000D19317D2629292F28262929292630485A
:1004C0004D4020380808080808080808382F10C8C8
:1004D000ACBA2F102834FA00007B000008142A144C
:1004E0002222142A1408AA005500AAAA55AA55AA1D
:1004F000000000FF00101010FF00141414FF001083
:1005000010FF00FF1010F010F0141414FC0014146D
:10051000F700FF0000FF00FF1414F404FC1414178C
:10052000101F10101F101F1414141F00101010F0B3
:10053000000000001F101010101F10101010F010FD
:10054000000000FF101010101010101010FF10000D
:100550000000FF140000FF00FF00001F1017000044
:10056000FC04F414141710171414F404F40000FF1E
:1005700000F714141414141414F700F714141417B7
:100580001410101F101F141414F4141010F010F095
:1005900000001F101F0000001F14000000FC1400CA
:1005A00000F010F01010FF10FF141414FF141010BE
:1005B000101F00000000F010FFFFFFFFFFF0F0F041
:1005C000F0F0FFFFFF0000000000FFFF0F0F0F0F14
:1005D0000F38444438447C2A2A3E147E0202060620
:1005E000027E027E0263554941633844443C044024
:1005F0007E201E2006027E020299A5E7A5991C2AEC
:10060000492A1C4C7201724C304A4D4D30304878AA
:100610004830BC625A463D3E494949007E010101CD
:100620007E2A2A2A2A2A44445F444440514A4440AC
:1006300040444A51400000FF0103E080FF000008F1
:10064000086B6B083612362436060F090F060000B9
:1006500018180000001010003040FF0101001F01B9
:10066000011E00191D1712003C3C3C3C000000001C
:100670000000000000040307060000000000000066
:100680000000000001020000000000000000000067
:1006900000010204081020408001020408102040DC
:1006A000800102040810204080010204081020404C
:1006B0008004040404040404040303030303030385
:1006C0000302020202020202020101010101010110
:1006D0000100002200250028002B0000002100243A
:1006E0000027002A0000A708930F221011241FBE24
:1006F000CFEFD0E1DEBFCDBF11E0A0E0B1E0EEEE84
:10070000FBE202C005900D92A433B107D9F722E0B5
:10071000A4E3B1E001C01D92A33AB207E1F713E0F0
:10072000C6E7D3E004C02197FE010E942813C33717
:10073000D107C9F70E9450100C94F5150C940000D5
:1007400087E00E94F21187E00E94F21121E030E080
:10075000029714F020E030E0C90108958DE391E0A4
:100760000E94EF0B60E28DE391E00E94160969E2BE
:100770008DE391E00E94160960E070E08DE391E066
:100780000E94E10981E080934E010895CF9380910A
:100790004E01811107C0C1E0C09303010E94AE0366
:1007A000C0934E01CF910895CF9380914E01811156
:1007B00007C0C1E0C09303010E94AE03C0934E0185
:1007C0008DE391E00E94F60B91E090930301682F76
:1007D000677F8DE391E0CF910C94F90BCF92EF926C
:1007E000FF920F931F9330914F01962F990F682F0F
:1007F000660F311116C0E0904C01F0904D01009150
:10080000010110910201392F330F330F930F860F1F
:10081000682F660FC42E492F8DE391E00E94400C93
:1008200011C00091010110910201392F330F330FD4
:10083000930F860F682F660FE42E492F8DE391E00A
:100840000E94E00C1F910F91FF90EF90CF900895C0
:10085000CF93DF931F92CDB7DEB789830E94C60383
:1008600089818130A1F028F0823021F1833081F13B
:100870003DC080E880933D0180EA80933E018091F5
:100880000301811102C068EC0DC060EC0BC080EA6E
:1008900080933D0180E880933E01809103018111A6
:1008A00007C068EA8DE391E00E94F90B81E01FC068
:1008B00060EAF8CF80E880933D0180EA80933E01B2
:1008C00080910301811102C068E1ECCF60E1EACFC1
:1008D00080EA80933D0180E880933E01809103018E
:1008E000811102C068E7DECF60E7DCCF80E00F90C7
:1008F000DF91CF9108956F927F928F929F92AF92E6
:10090000BF92CF92DF92EF92FF920F931F93CF93FC
:10091000DF93CDB7DEB760970FB6F894DEBF0FBE9A
:10092000CDBF0E94C6036BA07CA0A090000189A14E
:100930008A9DA02C1124809000018AA1889D802C82
:1009400011246E0125E2C20ED11CE12CF12CB12C38
:10095000912CF3012081222309F497C2253209F05A
:1009600046C2D30111968C918F7D833499F5F09115
:100970000001E091000120910001609100012E9D95
:10098000C0012F9D900D1124880D991DB9E16B9F19
:10099000B00111240E94B912362F2FEFE21AF20A89
:1009A00040910001D6012C912F7759E1F59FD0019C
:1009B0001124AA9EC001AB9E900DBA9E900D1124E9
:1009C000A9E1EA9FB00111240E94B912632F0E948D
:1009D000EE0334C1823409F063C0D6016D917C917D
:1009E00080E090E022E0AE014F5F5F4F0E945D1318
:1009F0009CA38BA30BA11CA1D8012C91222309F449
:100A00001DC1409100013091000160910001B9E1E8
:100A10004B9FA0011124A49EC001A59E900DB49EE1
:100A2000900D1124880D991D3E9DA0013F9D500DF4
:100A30001124840F951FE9E16E9FB00111240E94DB
:100A4000B912382F8091000170910001609100016E
:100A5000F9E18F9FC0011124A89EA001A99E500D0D
:100A6000B89E500D1124480D591D7E9DF0017F9DAB
:100A7000F00D1124CA018E0F9F1F49E1649FB00140
:100A800011240E94B9125FEFE51AF50A40910001A6
:100A9000832F0E94EE030F5F1F4F1CA30BA3AACF4F
:100AA000883409F063C0D6016D917C9180E090E0BC
:100AB00020E1AE014F5F5F4F0E945D139CA38BA3AB
:100AC0000BA11CA1D8012C91222309F4B7C040919D
:100AD00000013091000160910001B9E14B9FA0013C
:100AE0001124A49EC001A59E900DB49E900D1124CA
:100AF000880D991D3E9DA0013F9D500D1124840F2E
:100B0000951FE9E16E9FB00111240E94B912382FA0
:100B1000809100017091000160910001F9E18F9FC7
:100B2000C0011124A89EA001A99E500DB89E500D91
:100B30001124480D591D7E9DF0017F9DF00D11245B
:100B4000CA018E0F9F1F49E1649FB00111240E94CA
:100B5000B9125FEFE51AF50A40910001832F0E9458
:100B6000EE030F5F1F4F1CA30BA3AACF843409F021
:100B700069C0D6016D917C91072E000C880B990BF2
:100B80002AE0AE014F5F5F4F0E944E139CA38BA3E0
:100B90000BA11CA1D8012C91222309F44FC0409134
:100BA00000013091000160910001B9E14B9FA0016B
:100BB0001124A49EC001A59E900DB49E900D1124F9
:100BC000880D991D3E9DA0013F9D500D1124840F5D
:100BD000951FE9E16E9FB00111240E94B912382FD0
:100BE000809100017091000160910001F9E18F9FF7
:100BF000C0011124A89EA001A99E500DB89E500DC1
:100C00001124480D591D7E9DF0017F9DF00D11248A
:100C1000CA018E0F9F1F49E1649FB00111240E94F9
:100C2000B9125FEFE51AF50A40910001832F0E9487
:100C3000EE030F5F1F4F1CA30BA3AACFB2E0CB0E96
:100C4000D11CD1C08C3409F063C0D6016D917D9167
:100C50008D919C912AE0AE014F5F5F4F0E944E1331
:100C60009CA38BA30BA11CA1D8012C91222309F4D6
:100C7000B7C0409100013091000160910001B9E1DD
:100C80004B9FA0011124A49EC001A59E900DB49E6F
:100C9000900D1124880D991D3E9DA0013F9D500D82
:100CA0001124840F951FE9E16E9FB00111240E9469
:100CB000B912382F809100017091000160910001FC
:100CC000F9E18F9FC0011124A89EA001A99E500D9B
:100CD000B89E500D1124480D591D7E9DF0017F9D39
:100CE000F00D1124CA018E0F9F1F49E1649FB001CE
:100CF00011240E94B9125FEFE51AF50A4091000134
:100D0000832F0E94EE030F5F1F4F1CA30BA3AACFDC
:100D1000863409F06CC0D6016D917D918D919C91C6
:100D20008E010F5F1F4F2091040142E00E942E139D
:100D30009CA38BA30BA11CA1D8012C91222309F405
:100D40004FC0409100013091000160910001B9E174
:100D50004B9FA0011124A49EC001A59E900DB49E9E
:100D6000900D1124880D991D3E9DA0013F9D500DB1
:100D70001124840F951FE9E16E9FB00111240E9498
:100D8000B912382F8091000170910001609100012B
:100D9000F9E18F9FC0011124A89EA001A99E500DCA
:100DA000B89E500D1124480D591D7E9DF0017F9D68
:100DB000F00D1124CA018E0F9F1F49E1649FB001FD
:100DC00011240E94B9125FEFE51AF50A4091000163
:100DD000832F0E94EE030F5F1F4F1CA30BA3AACF0C
:100DE000B4E0CB0ED11CEFEF6E1A7E0A4AC04091E0
:100DF00000013091000160910001F9E14F9FA001D5
:100E00001124A49EC001A59E900DB49E900D1124A6
:100E1000880D991D3E9DA0013F9D500D1124840F0A
:100E2000951F39E1639FB00111240E94B912382F38
:100E300080910001709100016091000149E1849F5F
:100E4000C0011124A89EA001A99E500DB89E500D6E
:100E50001124480D591D7E9DF0017F9DF00D112438
:100E6000CA018E0F9F1F59E1659FB00111240E9496
:100E7000B9128FEFE81AF80A40910001832F0E94FF
:100E8000EE03AFEF6A1A7A0A64CD60960FB6F89453
:100E9000DEBF0FBECDBFDF91CF911F910F91FF90AD
:100EA000EF90DF90CF90BF90AF909F908F907F900A
:100EB0006F9008950E94C60360914C0170914D019E
:100EC0008DE391E00C94E1090F931F93CF93DF938F
:100ED0008C01C0E0D0E0C017D10731F08AE090E08B
:100EE0000E94A5112196F7CFDF91CF911F910F910D
:100EF00008954F925F926F927F928F929F92AF92DE
:100F0000BF92CF92DF92EF92FF921F93CF93DF9326
:100F100000D000D0CDB7DEB7182F7B0161E0298368
:100F20003A834B835C830E94381260E0812F0E94D9
:100F30007412A2E3B0E029813A814B815C810E9466
:100F40001D132B013C01970140E050E060E573EC7C
:100F500080E090E00E94EF1249015A01C301B20102
:100F60000E94CD12C12CD12C7601C216D306E40604
:100F7000F506E1F061E0812F29833A834B835C839E
:100F80000E947412C4010E94640760E0812F0E94D5
:100F90007412C4010E9464078FEFC81AD80AE80AC5
:100FA000F80A5C814B813A812981DFCF0F900F9045
:100FB0000F900F90DF91CF911F91FF90EF90DF90F6
:100FC000CF90BF90AF909F908F907F906F905F90E9
:100FD0004F900895CF92DF92EF92FF920F931F935D
:100FE000CF9364EF71E080E090E00E9469110E946D
:100FF000D4030E945A070FEF1FEF109302010093D2
:10100000010180E00E94280483E0809300018FE7C3
:101010009DE290930201809301018EE091E09F9305
:101020008F93C1E0CF93CF930E947B0480E09DEF2C
:10103000909302018093010186E08093000182E198
:1010400091E09F938F93CF93CF930E947B0482E094
:1010500080930001109302010093010125E131E02A
:101060003F932F938F9387E08F930E947B048FE1B0
:1010700090E090930201809301018DB79EB70C968A
:101080000FB6F8949EBF0FBE8DBF8BE1E82E81E0B6
:10109000F82EC7E09EE1C92E91E0D92E0E94A00350
:1010A000892B99F5FF92EF92CF93CF930E947B0407
:1010B0000F900F900F900F9009E110E06AE070E040
:1010C00080E090E00E9469110E94A003892B19F42E
:1010D0000150110999F7DF92CF92CF93CF930E94DD
:1010E0007B040F900F900F900F9009E110E06AE0E1
:1010F00070E080E090E00E9469110E94A003892BBB
:1011000069F60150110999F7C9CF24E630E040E0B3
:1011100050E060E273E08CE090E00E9479070E946A
:101120005A0781E0809300018FEF9FEF90930201B7
:101130008093010180E0CF911F910F91FF90EF907C
:10114000DF90CF900C9428040C94EA0708954AE0AD
:101150006BE08DE391E00E94B9088AE391E00E9480
:101160002F0E87E391E00E942F0E84E391E00C9410
:101170002F0EFC0162834383148215820895CF935E
:10118000DF93DC0114968C91149781110AC0C62F4D
:101190008CE00E946A0DCEBD0DB407FEFDCF8EB56A
:1011A00042C01996EC911997F0E0EE0FFF1FEF5235
:1011B000F94FC591D4911896EC911897F0E0EE0F85
:1011C000FF1FEF52F94F2591349198811D968C9114
:1011D0001D97892B888347E050E070E098811D9629
:1011E0008C911D978095892388831C968C911C97E0
:1011F000FB01042E02C0F595E7950A94E2F7E0FFA3
:1012000004C0F9019081892B04C0F9019081809577
:101210008923808398811D968C911D97892B8883C3
:1012200041505109D8F6DF91CF9108951F93CF9384
:10123000DF93EC01162F60E08B810E94741260E056
:101240008A810E947412612FCE010E94BF0861E062
:101250008A81DF91CF911F910C9474121F93CF93C9
:10126000DF93EC01162F61E08B810E94741260E025
:101270008A810E947412612FCE010E94BF0861E032
:101280008A81DF91CF911F910C947412EF92FF929B
:101290000F931F93CF93DF93EC01E62E142FF22EC2
:1012A0006AE20E94160960E0CE010E942E09809138
:1012B0005101811107C080915001811103C062E08A
:1012C0006E0D01C06E2DCE010E942E0960E0CE0190
:1012D0000E942E0980915101811107C08091500117
:1012E000811103C062E06F0D01C06F2DCE010E941D
:1012F0002E096BE2CE010E94160960E0CE010E9429
:101300002E0980915101811107C0809150018111F6
:1013100003C061E0610F01C0612FCE010E942E0960
:1013200060E0CE010E942E0980915101811107C019
:1013300080915001811103C061E0600F01C0602FF6
:10134000CE010E942E096CE2CE01DF91CF911F9158
:101350000F91FF90EF900C941609FF920F931F933B
:10136000CF93DF93EC019881691728F5998149178C
:1013700010F5F32E122F01E0040F21E0260FCE010D
:101380000E94460961E08B810E94741260E08A81AC
:101390000E9474126F2DCE010E94BF08612FCE01F2
:1013A0000E94BF0861E08A81DF91CF911F910F9168
:1013B000FF900C947412DF91CF911F910F91FF90C9
:1013C0000895EF92FF920F931F93CF93DF93EC0159
:1013D000F62EE72E098101502881215040E060E07F
:1013E0000E94460961E08B810E94741260E08A814C
:1013F0000E94741210E08881181780F400E089813F
:10140000081750F46E2DCE010E94BF086F2DCE013B
:101410000E94BF080F5FF3CF1F5FEDCF61E08A81AD
:10142000DF91CF911F910F91FF90EF900C94741268
:10143000CF93DF93EC011092510161E08B810E9408
:10144000381280E8888380EA89838D81882301F1BE
:1014500061E00E9438128D8190E0FC01EF54F94F59
:10146000E491E987FC01EF56F94FE491ED8761E0E3
:101470008C810E9438128C8190E0FC01EF54F94F6E
:10148000E491E887FC01EF56F94FE491EC8705C041
:101490000E94470D88E00E946A0D61E08A810E94E7
:1014A000381260E08A810E9474128A8190E0FC0107
:1014B000EF56F94FE491EA87FC01EF54F94FE491BC
:1014C000EE838B8190E0FC01EF56F94FE491EB87BE
:1014D000FC01EF54F94FE491EF8361E0CE010E94EB
:1014E000160966E970E080E090E00E94691161E110
:1014F000CE010E94160964EF71E080E090E00E9446
:10150000691161EBCE010E94160961E0CE010E94D3
:101510002E096CE2CE010E942E096DE2CE010E94DE
:101520002E0962EBCE010E94160961E0CE010E94F5
:101530002E096CE2CE010E942E096DE2CE010E94BE
:101540002E0963EBCE010E94160961E0CE010E94D4
:101550002E096CE2CE010E942E096DE2CE010E949E
:101560002E0961E0CE010E942E096CE2CE010E949C
:101570002E096DE2CE010E942E0964EBCE010E947D
:10158000160967E0CE010E942E0960ECCE010E9490
:10159000160962EACE010E942E0962E0CE010E9485
:1015A0002E0964E8CE010E942E0961ECCE010E9452
:1015B000160965ECCE010E942E0962ECCE010E9454
:1015C00016096AE0CE010E942E0960E0CE010E9459
:1015D0002E0963ECCE010E9416096AE8CE010E9432
:1015E0002E096AE2CE010E942E0964ECCE010E940F
:1015F00016096AE8CE010E942E096EEECE010E9405
:101600002E0965ECCE010E9416096EE0CE010E9403
:101610002E0960E2CE010E94160966E3CE010E9407
:10162000160980910601811106C068ECCE010E9466
:101630002E0988EC05C060ECCE010E942E0980ECDA
:101640008E876AE3CE010E94160965E0CE010E94F2
:101650002E096AE2CE010E94160960E0CE010E94C6
:101660002E0960E0CE010E942E0960E0CE010E94AA
:101670002E096FE7CE010E942E096BE2CE010E9477
:10168000160960E0CE010E942E0960E0CE010E94A2
:101690002E0960E0CE010E942E096FE9CE010E9462
:1016A0002E0960EECE010E94160962E0CE010E9472
:1016B0002E096CE1CE010E942E0967E0CE010E9446
:1016C0002E0962E1CE010E942E0967E3CE010E943D
:1016D0002E0962E3CE010E942E0969E2CE010E942A
:1016E0002E096DE2CE010E942E0969E2CE010E9410
:1016F0002E0965E2CE010E942E096BE2CE010E9406
:101700002E0969E3CE010E942E0960E0CE010E94FD
:101710002E0961E0CE010E942E0963E0CE010E94F5
:101720002E0960E1CE010E942E0961EECE010E94D9
:10173000160963E0CE010E942E096DE1CE010E94E0
:101740002E0967E0CE010E942E0966E0CE010E94BC
:101750002E096EE2CE010E942E096CE2CE010E949B
:101760002E0969E2CE010E942E096DE2CE010E948F
:101770002E096EE2CE010E942E096EE2CE010E9479
:101780002E0967E3CE010E942E096FE3CE010E946D
:101790002E0960E0CE010E942E0960E0CE010E9479
:1017A0002E0962E0CE010E942E0960E1CE010E9466
:1017B0002E0969E2CE010E94160964E670E080E01D
:1017C00090E00E94691163E1CE010E9416096AE06F
:1017D00070E080E090E0DF91CF910C94691121E0FE
:1017E00020935001209306010C94180AFC01868571
:1017F0000895CF93DF93EC016E8766E30E9416098C
:101800006E85CE01DF91CF910C942E09BF92CF92BD
:10181000DF92EF92FF920F931F93CF93DF93EC0130
:10182000C22EB02E042F0B0D262F2C0D6F5F0E94A1
:10183000460961E08B810E94741260E08A810E94F7
:10184000741210E01C1579F0D12CDB1451F06F2DBF
:10185000CE010E94BF086E2DCE010E94BF08D39416
:10186000F4CF1F5FEFCF61E08A81DF91CF911F91AD
:101870000F91FF90EF90DF90CF90BF900C94741277
:101880002F923F924F925F926F927F928F929F9290
:10189000AF92BF92CF92DF92EF92FF920F931F937E
:1018A000CF93DF9300D000D000D0CDB7DEB75C017E
:1018B0006983D42E380147015C2DA5E02A02C001BE
:1018C00011249B838A83362E412C512CB8E0B40F0F
:1018D000BC83EA81FB81E40DF51DEA58FE4F34918B
:1018E0003D831D2D2D2CC980C40C8D8180FF06C029
:1018F000513011F4930105C073010BC0513041F414
:101900009401412F6C2DC5015E830E94AD0909C071
:101910007401052F252F422D632DC5015E830E9482
:10192000060C5E819D8196959D83250E1F5FAC817F
:101930001A13DBCFBFEF4B1A5B0A350EE5E04E16EC
:10194000510439F6852F880F880F682E650EF981AE
:101950006F0ECD2C10E07F2E35E0730E513049F420
:101960009401412F4D0D672DC5015E830E94AD0985
:1019700009C07401052F252F4C2D662DC5015E83EE
:101980000E94060C5E811F5FC50E183039F726963F
:101990000FB6F894DEBF0FBECDBFDF91CF911F9180
:1019A0000F91FF90EF90DF90CF90BF90AF909F90FE
:1019B0008F907F906F905F904F903F902F90089501
:1019C0002F923F924F925F926F927F928F929F924F
:1019D000AF92BF92CF92DF92EF92FF920F931F933D
:1019E000CF93DF9300D01F92CDB7DEB75C01762E88
:1019F000642E48015E2C85E0280260011124462EE9
:101A00001B821A82EA81FB81EC0DFD1DEA58FE4F14
:101A10001491262C312C9A81970D998310FF13C0B5
:101A2000E1E05E1208C09401432D460D6981C501B5
:101A30000E94AD0908C07401052D252D422D642D8D
:101A4000C5010E94060C16953394250CF8E03F1250
:101A5000E5CF8A819B8101969B838A83450C0597FC
:101A600089F60F900F900F90DF91CF911F910F91FA
:101A7000FF90EF90DF90CF90BF90AF909F908F90AE
:101A80007F906F905F904F903F902F90089561E00E
:101A900087E10E94381261E085E10E94381261E01E
:101AA00084E10E94741261E084E10E94381260E0D7
:101AB00084E10E94741260E087E10E94741260E089
:101AC00085E10E9474128CB580618CBD8CB58064F8
:101AD0008CBD08959CB5937F892B8CBD08951F9272
:101AE0000F920FB60F9211242F933F934F935F9352
:101AF0006F937F938F939F93AF93BF93EF93FF93D6
:101B00008091530187FF05C01092850010928400D8
:101B10001BC020915301022E000C330B8091520107
:101B200090E02817390784F480915301082E000CA7
:101B3000990BFC01EE0FFF1F8E0F9F1FFC01EC5A4B
:101B4000FE4F808186FD15C0809153018F5F809389
:101B5000530120915301022E000C330B809152014E
:101B600090E028173907C4F48091530184305CF168
:101B700013C080915301082E000C990BFC01EE0F4D
:101B8000FF1F8E0F9F1FFC01EC5AFE4F808160E00B
:101B90008F730E947412D8CF809184009091850039
:101BA0008038924918F48CE792E905C0809184004E
:101BB00090918500049690938900809388008FEF20
:101BC000809353013BC02091840030918500809127
:101BD0005301082E000C990BFC01EE0FFF1F8E0F16
:101BE0009F1FFC01EC5AFE4F81819281820F931F4F
:101BF000909389008093880080915301082E000CF7
:101C0000990BFC01EE0FFF1F8E0F9F1FFC01EC5A7A
:101C1000FE4F808186FF12C080915301082E000C78
:101C2000990BFC01EE0FFF1F8E0F9F1FFC01EC5A5A
:101C3000FE4F808161E08F730E947412FF91EF91DB
:101C4000BF91AF919F918F917F916F915F914F91D4
:101C50003F912F910F900FBE0F901F901895FC0190
:101C6000909152019430A0F481E0890F8093520149
:101C70009083892F90E0FC01EE0FFF1F8E0F9F1FB6
:101C8000FC01EC5AFE4F86EA9EE092838183089520
:101C90008FEF80830895FC01918D228D892F90E034
:101CA000805C9F4F821B91098F7399270895FC01D7
:101CB000918D828D981731F0828DE80FF11D858D01
:101CC00090E008958FEF9FEF0895FC01918D828D34
:101CD000981761F0828DDF01A80FB11D5D968C9180
:101CE000928D9F5F9F73928F90E008958FEF9FEF8B
:101CF0000895FC01538D448D252F30E0842F90E012
:101D0000821B930B541710F0CF96089501970895F6
:101D100089E89FE0892B41F080E090E0892B21F059
:101D20000E94890F81110DC088E190E1892B71F02B
:101D300080E090E0892B51F00E941810811104C0BE
:101D400008950E940000F0CF0C9400000895FC015B
:101D5000848DDF01A80FB11DA35ABF4F2C91848D34
:101D600090E001968F739927848FA689B7892C9369
:101D7000A089B1898C9180648C93938D848D981304
:101D800006C00288F389E02D80818F7D80830895CD
:101D9000CF93DF93EC01888D8823C9F0EA89FB8912
:101DA000808185FD05C0A889B9898C9186FD0FC009
:101DB0000FB607FCF5CF808185FFF2CFA889B989DE
:101DC0008C9185FFEDCFCE010E94A70EE7CFDF916A
:101DD000CF910895EF92FF920F931F93CF93DF93CC
:101DE000EC0181E0888F9B8D8C8D981305C0E8896C
:101DF000F989808185FD24C0F62E0B8D10E00F5FE0
:101E00001F4F0F731127E02E8C8DE8120CC00FB6F8
:101E100007FCFACFE889F989808185FFF5CFCE01EB
:101E20000E94A70EF1CF8B8DFE01E80FF11DE35A42
:101E3000FF4FF0820B8FEA89FB898081806207C0A7
:101E4000EE89FF896083E889F989808180648083D5
:101E500081E090E0DF91CF911F910F91FF90EF9083
:101E600008951F920F920FB60F9211242F938F9304
:101E70009F93EF93FF93E0917001F0917101808146
:101E8000E0917601F091770182FD12C090818091FE
:101E900079018F5F8F7320917A01821751F0E09161
:101EA0007901F0E0E05AFE4F958F8093790101C0EF
:101EB0008081FF91EF919F918F912F910F900FBE95
:101EC0000F901F9018951F920F920FB60F9211242A
:101ED0002F933F934F935F936F937F938F939F9332
:101EE000AF93BF93EF93FF9380E691E00E94A70E1C
:101EF000FF91EF91BF91AF919F918F917F916F91E2
:101F00005F914F913F912F910F900FBE0F901F90B7
:101F1000189580E691E00E944B0E21E0892B09F490
:101F200020E0822F0895E0E6F1E01382128288EE2D
:101F300093E0A0E0B0E084839583A683B78385E235
:101F400091E09183808385EC90E09587848784EC91
:101F500090E09787868780EC90E0918B808B81EC76
:101F600090E0938B828B82EC90E0958B848B86EC57
:101F700090E0978B868B118E128E138E148E08959F
:101F80001F920F920FB60F9211242F938F939F934E
:101F9000EF93FF93E0910D02F0910E028081E091AA
:101FA0001302F091140282FD12C0908180911602FA
:101FB0008F5F8F7320911702821751F0E091160204
:101FC000F0E0E350FE4F958F8093160201C08081B0
:101FD000FF91EF919F918F912F910F900FBE0F90D6
:101FE0001F9018951F920F920FB60F9211242F93E6
:101FF0003F934F935F936F937F938F939F93AF9391
:10200000BF93EF93FF938DEF91E00E94A70EFF9196
:10201000EF91BF91AF919F918F917F916F915F9160
:102020004F913F912F910F900FBE0F901F901895D9
:102030008DEF91E00E944B0E21E0892B09F420E006
:10204000822F0895EDEFF1E01382128288EE93E083
:10205000A0E0B0E084839583A683B78385E291E016
:10206000918380838DEC90E0958784878CEC90E061
:102070009787868788EC90E0918B808B89EC90E045
:10208000938B828B8AEC90E0958B848B8EEC90E026
:10209000978B868B118E128E138E148E0895089551
:1020A0000E94B7110E944F100E94A408C8E8DEE009
:1020B0000E94A6082097E1F30E94880EF9CFCF92E4
:1020C000DF92EF92FF920F931F93CF93DF936C01F8
:1020D0007A018B01C0E0D0E0CE15DF0589F0D80190
:1020E0006D918D01D601ED91FC910190F081E02D73
:1020F000C6010995892B11F47E0102C02196ECCF0F
:10210000C701DF91CF911F910F91FF90EF90DF906A
:10211000CF90089508951F920F920FB60F92112439
:102120002F933F934F935F936F937F938F939F93DF
:10213000AF93BF93EF93FF93E0910701F0910801F4
:102140000995FF91EF91BF91AF919F918F917F91F1
:102150006F915F914F913F912F910F900FBE0F9014
:102160001F9018951F920F920FB60F9211242F9364
:102170003F934F935F936F937F938F939F93AF930F
:10218000BF93EF93FF93E0910901F0910A01099544
:10219000FF91EF91BF91AF919F918F917F916F913F
:1021A0005F914F913F912F910F900FBE0F901F9015
:1021B00018951F920F920FB60F9211242F933F93F1
:1021C0004F935F936F937F938F939F93AF93BF933F
:1021D000EF93FF93E0910B01F0910C010995FF91B2
:1021E000EF91BF91AF919F918F917F916F915F918F
:1021F0004F913F912F910F900FBE0F901F90189508
:102200001F920F920FB60F9211242F933F938F932B
:102210009F93AF93BF9380919B0290919C02A0915A
:102220009D02B0919E0230919A0226E6230F2D372F
:1022300028F029EE230F0196A11DB11D20939A02CB
:1022400080939B0290939C02A0939D02B0939E0268
:1022500080919F029091A002A091A102B091A20250
:102260000196A11DB11D80939F029093A002A0939F
:10227000A102B093A202BF91AF919F918F913F9124
:102280002F910F900FBE0F901F9018959FB7F89445
:1022900040919F025091A0026091A1027091A20210
:1022A00086B5A89B06C08F3F21F04F5F5F4F6F4FF1
:1022B0007F4F9FBF762F652F542F44279A01AB0184
:1022C000280F311D411D511DA3E0B0E00E941D13D8
:1022D00008958F929F92AF92BF92CF92DF92EF922A
:1022E000FF926B017C010E9446114B015C01C114FD
:1022F000D104E104F10401F10E94A4120E944611EC
:10230000DC01CB0188199909AA09BB09883E9340D1
:10231000A105B10560F321E0C21AD108E108F10876
:1023200088EE880E83E0981EA11CB11CC114D10454
:10233000E104F10419F7DBCFFF90EF90DF90CF902D
:10234000BF90AF909F908F90089500000000000014
:1023500000008230910550F09C01220F331F220FA4
:10236000331F0797820F931F0197F1F70895789411
:1023700084B5826084BD84B5816084BD85B582608A
:1023800085BD85B5816085BDEEE6F0E08081816028
:102390008083E1E8F0E01082808182608083808128
:1023A00081608083E0E8F0E0808181608083E1EB00
:1023B000F0E0808184608083E0EBF0E080818160E8
:1023C0008083EAE7F0E0808184608083808182609E
:1023D0008083808181608083808180688083109287
:1023E000C1000895883108F08851877020910D014F
:1023F00090E4299F90011124822B80937C0080918E
:102400007A00806480937A0080917A0086FDFCCF08
:10241000809178002091790090E0922B089583308C
:1024200081F028F4813099F08230A1F0089586304F
:10243000A9F08730B9F08430D1F4809180008F7D8D
:1024400003C0809180008F7780938000089584B5C9
:102450008F7702C084B58F7D84BD08958091B000D0
:102460008F7703C08091B0008F7D8093B000089576
:10247000CF93DF9390E0FC01EF56F94F2491FC01DC
:10248000EF54F94F8491882361F190E0880F991FF0
:10249000FC01E552F94FC591D491FC01EF52F94F7F
:1024A000A591B491611109C09FB7F89488812095D6
:1024B00082238883EC912E230BC0623061F49FB796
:1024C000F8943881822F809583238883EC912E2B7A
:1024D0002C939FBF06C08FB7F894E8812E2B2883DA
:1024E0008FBFDF91CF9108951F93CF93DF93282F54
:1024F00030E0F901EF58F94F8491F901EF56F94FA7
:10250000D491F901EF54F94FC491CC23C9F0162F9F
:1025100081110E940F12EC2FF0E0EE0FFF1FEF521F
:10252000F94FA591B4918FB7F894111105C09C9102
:10253000ED2FE095E92302C0EC91ED2BEC938FBFDA
:10254000DF91CF911F9108950895AA1BBB1B51E104
:1025500007C0AA1FBB1FA617B70710F0A61BB70B13
:10256000881F991F5A95A9F780959095BC01CD01B8
:10257000089597FB072E16F4009407D077FD09D035
:102580000E94A51207FC05D03EF4909581959F4FBF
:102590000895709561957F4F0895A1E21A2EAA1BA8
:1025A000BB1BFD010DC0AA1FBB1FEE1FFF1FA21703
:1025B000B307E407F50720F0A21BB30BE40BF50B00
:1025C000661F771F881F991F1A9469F76095709589
:1025D000809590959B01AC01BD01CF010895052E1A
:1025E00097FB1EF400940E94061357FD07D00E942B
:1025F000CD1207FC03D04EF40C9406135095409571
:10260000309521953F4F4F4F5F4F0895909580959E
:10261000709561957F4F8F4F9F4F0895A29FB00196
:10262000B39FC001A39F700D811D1124911DB29F06
:10263000700D811D1124911D08950E940E13A59FF8
:10264000900DB49F900DA49F800D911D11240895AD
:10265000EE0FFF1F0590F491E02D0994EF920F9378
:102660001F93CF93DF93E80147FD02C034E001C020
:1026700034E1E42F440FFF0BF7FF03C0F195E19520
:10268000F109E32E022F2E2FAE010E947F13CE01FF
:10269000DF91CF911F910F91EF900895BB272A30C2
:1026A00051F4992342F4BDE290958095709561951F
:1026B0007F4F8F4F9F4F0C945E13BB27FA01A62FBD
:1026C0006217710581059105330B30FB66F0AA276F
:1026D000660F771F881F991FAA1FA21710F0A21B51
:1026E00063953850A9F7A05DAA3308F0A95DA193BE
:1026F00036F7B111B1931082CA010C94E5154F92CF
:102700005F926F927F929F92AF92BF92CF92DF9231
:10271000EF92FF920F931F93CF93DF93CDB7DEB766
:1027200029970FB6F894DEBF0FBECDBF6A01122FF6
:10273000B02E2BE3201720F0FF24F394F00E02C0FC
:10274000BCE3FB2E0F2D27E0AE014F5F5F4F0E94D1
:102750000D15AC018981982F9970913031F0E1FC11
:1027600006C0E0FE06C090E205C09DE203C09BE209
:1027700001C090E0EE2DE07183FF3CC0911102C0DA
:1027800083E001C084E0811718F4212F281B01C0C9
:1027900020E0E1110BC0F601822F30E2882319F00E
:1027A00031938150FBCFC20ED11C20E0992329F038
:1027B000D6019C93F60131966F01C6010396E2FEA5
:1027C0000AC03EE4D6013C9341E411964C93119724
:1027D00012963C9306C03EE6F601308341E6418303
:1027E0003283FC01322F40E2332309F442C041938B
:1027F0003150FACF82FF44C0911102C083E001C082
:1028000084E0811718F4212F281B01C020E0E1117A
:102810000BC0F601822F30E2882319F031938150EA
:10282000FBCFC20ED11C20E0992329F0D6019C9346
:10283000F60131966F01C6010396E2FE0BC039E442
:10284000D6013C933EE411963C93119736E41296E0
:102850003C9307C039E6F60130833EE6318336E625
:102860003283FC01322F40E2332319F0419331507F
:10287000FBCFFC01E20FF11D10828EEF9FEFB7C07E
:10288000F1E0911101C0F0E06F2F70E01416150611
:1028900024F49A012F5F3F4F02C021E030E0260F61
:1028A000371FBB2029F06B2D70E06F5F7F4F02C098
:1028B00060E070E0260F371F612F70E026173707A2
:1028C0001CF4121B212F01C020E03E2D387159F459
:1028D000D601322F60E2332319F06D933150FBCFD4
:1028E000C20ED11C20E0FF2331F0D6019C93B6012B
:1028F0006F5F7F4F6B01E1110BC0F601922F30E348
:10290000992319F031939150FBCFC20ED11C20E0D6
:102910009F2D940F3A81782F7071A72E84FF03C0EA
:10292000313309F49150191624F4993018F098E0D5
:1029300001C091E0E42F852F57FF02C0E0E080E066
:102940006E2F782FE0E0F0E0AEE29A2E3A01691A9D
:1029500071082A01461A570A0B2D10E011950195AE
:1029600011096F3F8FEF780729F4D6019C92C601B9
:1029700001966C014617570784F0661677066CF4CB
:102980007F01E40CF51CA1E0B0E0AC0FBD1FEA0E26
:10299000FB1ED7011196BC9002C090E3B92E615086
:1029A00071093196C60101967C016017710724F008
:1029B000D601BC926C01D5CF6417750741F436334C
:1029C00020F4353321F4A11002C081E3B82EF601C2
:1029D000B082F701822F90E2882319F09193815001
:1029E000FBCFF701E20FF11D108280E090E0299605
:1029F0000FB6F894DEBF0FBECDBFDF91CF911F9110
:102A00000F91FF90EF90DF90CF90BF90AF909F908D
:102A10007F906F905F904F900895283008F027E0E6
:102A20003327DA01990F311D87FD9160009661050A
:102A3000710539F432602E5F3D9330E32A95E1F75A
:102A400008959F3F30F080387105610509F03C5FC3
:102A50003C5F3D93913008F08068911DDF93CF93E8
:102A60001F930F93FF92EF92192F987F9695E92F5E
:102A700096959695E90FFF27EA52FF4F992733273E
:102A8000EE24FF24A701E70105900894079428F499
:102A9000360FE71EF81E491F511D660F771F881F4E
:102AA000991F0694A1F70590079428F4E70EF81EE5
:102AB000491F561FC11D770F881F991F661F069457
:102AC000A1F70590079428F4F80E491F561FC71F59
:102AD000D11D880F991F661F771F0694A1F70590D7
:102AE000079420F4490F561FC71FD81F990F661F60
:102AF000771F881F0694A9F784911095177041F0ED
:102B0000D695C79557954795F794E7941A95C1F7C9
:102B1000ECE7F0E0689415901591359165919591E9
:102B200005907FE27395E118F10A430B560BC90B30
:102B3000D009C0F7E10CF11E431F561FC91FD01D5D
:102B40007EF4703311F48A95E6CFE894015030F0AA
:102B5000080F0AF40027021708F4202F2395022FEC
:102B60007A3328F079E37D932A95E9F710C07D93B5
:102B70002A9589F606949795679537951795179432
:102B8000E118F10A430B560BC90BD00998F02395B5
:102B90007E9173957A3308F070E37C932013B8F735
:102BA0007E9170617D9330F0839571E37D9370E346
:102BB0002A95E1F71124EF90FF900F911F91CF918B
:102BC000DF91992787FD90950895DC01FC01672F1F
:102BD00071917723E1F7329704C07C916D937083F4
:0E2BE0006291AE17BF07C8F30895F894FFCFB7
:102BEE0001FFFF010300018A108A108A1001504F65
:102BFE0050005832005075736820004F4B00202053
:102C0E000000000000EA0E5F10790EC80E4B0E6534
:042C1E000E570E003F
:00000001FF
